:1000000053EF05F00000000000EF00F000000000DA
:0A0010000000000000000000F3D71C
:10001C0062C1C9FFC7B002D00000FCD7C9CF00F045
:02002C001200C0
:10002E0061C1C9FFC7B002D00000FCD7C9CF00F034
:02003E001200AE
:100040001BD0010E016E31D0050E016E2ED0090EAF
:10005000016E2BD00D0E016E28D0110E016E25D031
:10006000160E016E22D0190E016E1FD01D0E016EEC
:100070001CD0010E016E19D01550000AE2E0155097
:10008000010AE2E01550020AE2E01550030AE2E03C
:100090001550040AE2E01550050AE2E01550060A80
:1000A000E2E01550070AE2E0E4D701C000F01200D8
:1000B00020C001F001360190013601900136019017
:1000C00001C020F022500124006E2150002600C003
:1000D0001DF0005001241D6E84901FC062F19EDF50
:1000E0001EC062F19BDF1DC062F198DF16C062F195
:1000F00095DF84801F6A1E6A206A226A216A166A56
:020100001200EB
:100102002294216A20C001F001360190013601904B
:100112000136019001C020F022500124006E00C07F
:100122001DF0005001241D6E84901FC062F175DF26
:100132001EC062F172DF1DC062F16FDF60C161F14A
:1001420075DF84801F6A1E6A206A226A216A166A23
:02015200120099
:100154001F6A1E0E1E6E72DF00C020F022842192E0
:0A016400219460C116F0A2DF120022
:10016E001F6A1F0E1E6E65DF00C020F022842192D2
:0A017E00219460C116F095DF120015
:1001880001015F6B040E5F5D16E21F6A5F510F0F7E
:100198001E6E206A228421922194190EE96E000EA7
:1001A800EA6E5F51E926D8B0EA2AEECF16F07CDF76
:0801B80001015F2BE7D71200E3
:1001C00001015F6B040E5F5D16E21F6A5F51010F54
:1001D0001E6E206A228421922194230EE96E000E65
:1001E000EA6E5F51E926D8B0EA2AEECF16F060DF5A
:0801F00001015F2BE7D71200AB
:1001F800536A080E535C1AE253C015F0270EE96ED5
:10020800000EEA6E5350E926D8B0EA2AEECF60F124
:10021800AADF270EE96E000EEA6E5350E926D8B021
:0E022800EA2AEECF60F192DF532AE3D71200EC
:1002360001015F6B040E5F5D16E21F6A5F51050FD9
:100246001E6E206A228421922194370EE96E000EDA
:10025600EA6E5F51E926D8B0EA2AEECF16F025DF1E
:0802660001015F2BE7D7120034
:10026E001F6A1E6A206A2284219221945FC116F0B1
:04027E0018DF120073
:100282001F6A5FC11EF0206A22942192219438DFF6
:02029200120058
:1002940001015F6B060E5F5D16E21F6A5F51090F75
:1002A4001E6E206A2284219221942F0EE96E000E84
:1002B400EA6E5F51E926D8B0EA2AEECF16F0F6DEF0
:0802C40001015F2BE7D71200D6
:1002CC000B6A0A6A096A00500402F4CF09F0F3CFF2
:1002DC0008F001500502F4CF0BF0F3CF0AF00050F8
:1002EC000502F3500926F4500A22E86A0B22015049
:1002FC000402F3500926F4500A22E86A0B2208C0C3
:10030C0000F009C001F00AC002F00BC003F01200AB
:10031C001F6A100E1E6E8EDE00C020F02284219209
:10032C0021945CC1E9FF5DC1EAFFEECF16F0BADEA5
:10033C001F6A110E1E6E7EDE00C020F022842192F8
:10034C002194010E01015C25E96E000E5D21EA6E1F
:08035C00EECF16F0A7DE12003F
:10036400C69A2E0E4F6E000E506E610E516E010E27
:10037400526E1C0E4B6E000E4C6E620E4D6E010ED4
:100384004E6E949A94969488C66A400EC76EC68A36
:02039400120055
:10039600F8DE4EDF7CDF11DF2CDF01015F6B6EDFE5
:0E03A60000C017F0179817C05FF15EDF12005D
:1003B4001F6A010E1E6E42DE00C020F022842192CC
:0A03C40021945CC116F072DE1200F5
:1003CE001F6A1E6A36DE00C020F02284219221941C
:0803DE005CC116F066DE12009E
:1003E6001F6A5CC11EF029DE00C020F02294219213
:0603F600219484DE1200D8
:1003FC0001015E6B060E5E5D17E21F6A5E51060F11
:10040C001E6E18DE00C020F022842192219401017E
:10041C005E515C25E96E000E5D21EA6EEECF16F0A2
:0A042C0041DE01015E2BE6D712004D
:1004360001015E6B040E5E5D17E21F6A5E510C0FD2
:100446001E6EFBDD00C020F0228421922194010162
:100456005E515C25E96E000E5D21EA6EEECF16F068
:0A04660024DE01015E2BE6D7120030
:100470000900F5CFE6FF0006FBE10106F9E11200F5
:10048000770ED36E0F01386B396B3A6B3B6B3C6B5D
:10049000926A936A100E946E956A966A806A816A6F
:1004A000826A836A846A020E0B6E040E0C6EBA0EA8
:1004B0000D6E0D2EFED70C2EFCD70B2EFAD700009A
:1004C000848250DF8480420E0D6E0D2EFED7000018
:1004D0008180020E0B6E040E0C6EBA0E0D6E0D2E88
:1004E000FED70C2EFCD70B2EFAD700008190020EFF
:1004F0000B6E040E0C6EBA0E0D6E0D2EFED70C2E6A
:10050000FCD70B2EFAD700008180020E0B6E040E72
:100510000C6EBA0E0D6E0D2EFED70C2EFCD70B2EC8
:10052000FAD700008190FF0E816E0B0E0B6E260E27
:100530000C6E5D0E0D6E0D2EFED70C2EFCD70B2E05
:10054000FAD700000000816A0B0E0B6E260E0C6EAF
:100550005D0E0D6E0D2EFED70C2EFCD70B2EFAD78E
:1005600000000000FF0E816E0B0E0B6E260E0C6E4F
:100570005D0E0D6E0D2EFED70C2EFCD70B2EFAD76E
:1005800000000000816A0B0E0B6E260E0C6E5D0ED5
:100590000D6E0D2EFED70C2EFCD70B2EFAD70000B9
:0405A0000000120045
:1005A400156A186A356AF5DE210E006E000E016EBA
:1005B40036C004F0000E056E87DE540E0024E16E92
:1005C400000E0120E26E020EE66E210E006E000E99
:1005D400016E36C004F0000E056E76DE540E002661
:1005E400000E0122010E0024E16E000E0120E26ED5
:1005F400010EE66E210E006E000E016E36C004F090
:10060400000E056E61DE540E0026000E0122020E5D
:100614000024E16E000E0120E26E270EE66E210E2C
:10062400006E000E016E36C004F0000E056E4CDE46
:10063400540E0026000E0122020E0026000E012296
:10064400010E0024E16E000E0120E26E110EE66E32
:10065400210E006E000E016E36C004F0000E056E11
:1006640033DE540E0026000E0122040E0024E16E37
:10067400000E0120E26E900EE66E210E006E000E5A
:10068400016E36C004F0000E056E1EDE540E002608
:10069400000E0122040E0026000E0122010E002489
:1006A400E16E000E0120E26EB10EE66E210E006EC8
:1006B400000E016E36C004F0000E056E05DE540E09
:1006C4000026000E0122040E0026000E0122020E56
:1006D4000024E16E000E0120E26E1C0EE66E210E77
:1006E400006E000E016E36C004F0000E056EECDDE7
:1006F400540E0026000E0122040E0026000E0122D4
:10070400030E0024E16E000E0120E26E940EE66EEC
:10071400210E006E000E016E36C004F0000E056E50
:10072400D3DD540E0026000E0122040E0026000E16
:100734000122040E0024E16E000E0120E26E880EF8
:10074400E66E210E006E000E016E36C004F0000E3F
:10075400056EBADD540E0026000E0122040E00269A
:10076400000E0122050E0024E16E000E0120E26E4F
:10077400050EE66E210E006E000E016E36C004F00A
:10078400000E056EA1DD540E0026000E01220A0E95
:100794000024E16E000E0120E26E0A0EE66E210EC8
:1007A400006E000E016E36C004F0000E056E8CDD86
:1007B400540E0026000E01220A0E0026000E01220D
:1007C400010E0024E16E000E0120E26EE66A210EA5
:1007D400006E000E016E36C004F0000E056E74DD6E
:1007E400540E0026000E01220A0E0026000E0122DD
:1007F400020E0024E16E000E0120E26E020EE66E8F
:10080400210E006E000E016E36C004F0000E056E5F
:100814005BDD540E0026000E01220A0E0026000E97
:100824000122030E0024E16E000E0120E26E030E8D
:10083400E66E210E006E000E016E36C004F0000E4E
:10084400056E42DD540E0026000E01220E0E002419
:10085400E16E000E0120E26E270EE66E210E006EA0
:10086400000E016E36C004F0000E056E2DDD540E30
:100874000026000E01220E0E0026000E0122010E9B
:100884000024E16E000E0120E26E110EE66E210ED0
:10089400006E000E016E36C004F0000E056E14DD0D
:1008A400540E0026000E0122120E0024E16E000EEA
:1008B4000120E26E020EE66E210E006E000E016E45
:1008C40036C004F0000E056EFFDC540E0026000E48
:1008D4000122130E0024E16E000E0120E26E020ECE
:1008E400E66E210E006E000E016E36C004F0000E9E
:1008F400056EEADC540E002401015C6F000E012039
:100904005D6F040E5C27000E5D2376DD210E006E04
:10091400000E016E36C004F0000E056ED5DC540ED8
:1009240000245C6F000E01205D6F0A0E5C27000E30
:100934005D237FDD210E006E000E016E36C004F0D3
:10094400000E056EC1DC540E00245C6F000E012005
:100954005D6F0E0E5C27000E5D23DEDC210E006E43
:10096400000E016E36C004F0000E056EADDC540EB0
:100974000024E96E000E0120EA6EEECF5CF125DD65
:10098400210E006E000E016E36C004F0000E056EDE
:100994009BDC540E0026000E0122010E0024E96E99
:1009A400000E0120EA6EEECF5CF102DDFF0E3B6E1D
:1009B4003C6AFF0E3D6E3E6AFF0E3F6EFF0E406EB8
:1009C400416AFF0E426E436AFF0E446EFF0E456E8F
:1009D400466AFF0E476E486AFF0E496E4A6A030E66
:1009E40001015C6FFEDC0050220A5AE1838E838C85
:1009F400838A210E01015C6FDBDC8388100E010108
:100A04005C6FD6DCFF0E816E030E0B6E8A0E0C6ECD
:100A1400550E0D6E0D2EFED70C2EFCD70B2EFAD7CD
:100A240000000000816A030E0B6E8A0E0C6E550ED8
:100A34000D6E0D2EFED70C2EFCD70B2EFAD7000010
:100A44000000FF0E816E030E0B6E8A0E0C6E550EA7
:100A54000D6E0D2EFED70C2EFCD70B2EFAD70000F0
:100A64000000816A030E0B6E8A0E0C6E550E0D6E1D
:100A74000D2EFED70C2EFCD70B2EFAD7000000004B
:100A84008386010E01015C6F93DC030E0C6E970EDE
:100A94000D6E0D2EFED70C2EFCD700000000A7D73C
:020AA40012003E
:0A0AA60073EC05F0EADC7BDDFFD7FE
:100AE60010EE15F0360E006E010E016EB00EF66EAB
:0E0AF6000A0EF76E000EF86E38EC02F01200D9
:010AB0000045
:010AB1000044
:010AB2000043
:010AB3000042
:040AB4000A00022F03
:010AB800003D
:010AB900003C
:010ABA00003B
:010ABB00003A
:010ABC000039
:010ABD000038
:040ABE000A00000129
:080AC20002020202020202021C
:060ACA000014A372173FA7
:010AD0000025
:010AD1000024
:040AD200FFFFFC0026
:100AD6000000000000000000000000000000000010
:020000040030CA
:0D000100281F3CFF3D81FF0FC00FE00F40A6
:00000001FF
